{
  "address": "0x823efb1B5bcf17Bb5Aee78E2aBA070fC3e58dFC2",
  "abi": [
    {
      "inputs": [
        {
          "internalType": "contract ISigsVerifier",
          "name": "_sigsVerifier",
          "type": "address"
        }
      ],
      "stateMutability": "nonpayable",
      "type": "constructor"
    },
    {
      "anonymous": false,
      "inputs": [
        {
          "indexed": false,
          "internalType": "uint256",
          "name": "period",
          "type": "uint256"
        }
      ],
      "name": "DelayPeriodUpdated",
      "type": "event"
    },
    {
      "anonymous": false,
      "inputs": [
        {
          "indexed": false,
          "internalType": "address",
          "name": "token",
          "type": "address"
        },
        {
          "indexed": false,
          "internalType": "uint256",
          "name": "threshold",
          "type": "uint256"
        }
      ],
      "name": "DelayThresholdUpdated",
      "type": "event"
    },
    {
      "anonymous": false,
      "inputs": [
        {
          "indexed": false,
          "internalType": "bytes32",
          "name": "id",
          "type": "bytes32"
        }
      ],
      "name": "DelayedTransferAdded",
      "type": "event"
    },
    {
      "anonymous": false,
      "inputs": [
        {
          "indexed": false,
          "internalType": "bytes32",
          "name": "id",
          "type": "bytes32"
        },
        {
          "indexed": false,
          "internalType": "address",
          "name": "receiver",
          "type": "address"
        },
        {
          "indexed": false,
          "internalType": "address",
          "name": "token",
          "type": "address"
        },
        {
          "indexed": false,
          "internalType": "uint256",
          "name": "amount",
          "type": "uint256"
        }
      ],
      "name": "DelayedTransferExecuted",
      "type": "event"
    },
    {
      "anonymous": false,
      "inputs": [
        {
          "indexed": false,
          "internalType": "bytes32",
          "name": "depositId",
          "type": "bytes32"
        },
        {
          "indexed": false,
          "internalType": "address",
          "name": "depositor",
          "type": "address"
        },
        {
          "indexed": false,
          "internalType": "address",
          "name": "token",
          "type": "address"
        },
        {
          "indexed": false,
          "internalType": "uint256",
          "name": "amount",
          "type": "uint256"
        },
        {
          "indexed": false,
          "internalType": "uint64",
          "name": "mintChainId",
          "type": "uint64"
        },
        {
          "indexed": false,
          "internalType": "address",
          "name": "mintAccount",
          "type": "address"
        }
      ],
      "name": "Deposited",
      "type": "event"
    },
    {
      "anonymous": false,
      "inputs": [
        {
          "indexed": false,
          "internalType": "uint256",
          "name": "length",
          "type": "uint256"
        }
      ],
      "name": "EpochLengthUpdated",
      "type": "event"
    },
    {
      "anonymous": false,
      "inputs": [
        {
          "indexed": false,
          "internalType": "address",
          "name": "token",
          "type": "address"
        },
        {
          "indexed": false,
          "internalType": "uint256",
          "name": "cap",
          "type": "uint256"
        }
      ],
      "name": "EpochVolumeUpdated",
      "type": "event"
    },
    {
      "anonymous": false,
      "inputs": [
        {
          "indexed": false,
          "internalType": "address",
          "name": "account",
          "type": "address"
        }
      ],
      "name": "GovernorAdded",
      "type": "event"
    },
    {
      "anonymous": false,
      "inputs": [
        {
          "indexed": false,
          "internalType": "address",
          "name": "account",
          "type": "address"
        }
      ],
      "name": "GovernorRemoved",
      "type": "event"
    },
    {
      "anonymous": false,
      "inputs": [
        {
          "indexed": false,
          "internalType": "address",
          "name": "token",
          "type": "address"
        },
        {
          "indexed": false,
          "internalType": "uint256",
          "name": "amount",
          "type": "uint256"
        }
      ],
      "name": "MaxDepositUpdated",
      "type": "event"
    },
    {
      "anonymous": false,
      "inputs": [
        {
          "indexed": false,
          "internalType": "address",
          "name": "token",
          "type": "address"
        },
        {
          "indexed": false,
          "internalType": "uint256",
          "name": "amount",
          "type": "uint256"
        }
      ],
      "name": "MinDepositUpdated",
      "type": "event"
    },
    {
      "anonymous": false,
      "inputs": [
        {
          "indexed": true,
          "internalType": "address",
          "name": "previousOwner",
          "type": "address"
        },
        {
          "indexed": true,
          "internalType": "address",
          "name": "newOwner",
          "type": "address"
        }
      ],
      "name": "OwnershipTransferred",
      "type": "event"
    },
    {
      "anonymous": false,
      "inputs": [
        {
          "indexed": false,
          "internalType": "address",
          "name": "account",
          "type": "address"
        }
      ],
      "name": "Paused",
      "type": "event"
    },
    {
      "anonymous": false,
      "inputs": [
        {
          "indexed": false,
          "internalType": "address",
          "name": "account",
          "type": "address"
        }
      ],
      "name": "PauserAdded",
      "type": "event"
    },
    {
      "anonymous": false,
      "inputs": [
        {
          "indexed": false,
          "internalType": "address",
          "name": "account",
          "type": "address"
        }
      ],
      "name": "PauserRemoved",
      "type": "event"
    },
    {
      "anonymous": false,
      "inputs": [
        {
          "indexed": false,
          "internalType": "address",
          "name": "account",
          "type": "address"
        }
      ],
      "name": "Unpaused",
      "type": "event"
    },
    {
      "anonymous": false,
      "inputs": [
        {
          "indexed": false,
          "internalType": "bytes32",
          "name": "withdrawId",
          "type": "bytes32"
        },
        {
          "indexed": false,
          "internalType": "address",
          "name": "receiver",
          "type": "address"
        },
        {
          "indexed": false,
          "internalType": "address",
          "name": "token",
          "type": "address"
        },
        {
          "indexed": false,
          "internalType": "uint256",
          "name": "amount",
          "type": "uint256"
        },
        {
          "indexed": false,
          "internalType": "uint64",
          "name": "refChainId",
          "type": "uint64"
        },
        {
          "indexed": false,
          "internalType": "bytes32",
          "name": "refId",
          "type": "bytes32"
        },
        {
          "indexed": false,
          "internalType": "address",
          "name": "burnAccount",
          "type": "address"
        }
      ],
      "name": "Withdrawn",
      "type": "event"
    },
    {
      "inputs": [
        {
          "internalType": "address",
          "name": "_account",
          "type": "address"
        }
      ],
      "name": "addGovernor",
      "outputs": [],
      "stateMutability": "nonpayable",
      "type": "function"
    },
    {
      "inputs": [
        {
          "internalType": "address",
          "name": "account",
          "type": "address"
        }
      ],
      "name": "addPauser",
      "outputs": [],
      "stateMutability": "nonpayable",
      "type": "function"
    },
    {
      "inputs": [],
      "name": "delayPeriod",
      "outputs": [
        {
          "internalType": "uint256",
          "name": "",
          "type": "uint256"
        }
      ],
      "stateMutability": "view",
      "type": "function"
    },
    {
      "inputs": [
        {
          "internalType": "address",
          "name": "",
          "type": "address"
        }
      ],
      "name": "delayThresholds",
      "outputs": [
        {
          "internalType": "uint256",
          "name": "",
          "type": "uint256"
        }
      ],
      "stateMutability": "view",
      "type": "function"
    },
    {
      "inputs": [
        {
          "internalType": "bytes32",
          "name": "",
          "type": "bytes32"
        }
      ],
      "name": "delayedTransfers",
      "outputs": [
        {
          "internalType": "address",
          "name": "receiver",
          "type": "address"
        },
        {
          "internalType": "address",
          "name": "token",
          "type": "address"
        },
        {
          "internalType": "uint256",
          "name": "amount",
          "type": "uint256"
        },
        {
          "internalType": "uint256",
          "name": "timestamp",
          "type": "uint256"
        }
      ],
      "stateMutability": "view",
      "type": "function"
    },
    {
      "inputs": [
        {
          "internalType": "address",
          "name": "_token",
          "type": "address"
        },
        {
          "internalType": "uint256",
          "name": "_amount",
          "type": "uint256"
        },
        {
          "internalType": "uint64",
          "name": "_mintChainId",
          "type": "uint64"
        },
        {
          "internalType": "address",
          "name": "_mintAccount",
          "type": "address"
        },
        {
          "internalType": "uint64",
          "name": "_nonce",
          "type": "uint64"
        }
      ],
      "name": "deposit",
      "outputs": [],
      "stateMutability": "nonpayable",
      "type": "function"
    },
    {
      "inputs": [
        {
          "internalType": "uint256",
          "name": "_amount",
          "type": "uint256"
        },
        {
          "internalType": "uint64",
          "name": "_mintChainId",
          "type": "uint64"
        },
        {
          "internalType": "address",
          "name": "_mintAccount",
          "type": "address"
        },
        {
          "internalType": "uint64",
          "name": "_nonce",
          "type": "uint64"
        }
      ],
      "name": "depositNative",
      "outputs": [],
      "stateMutability": "payable",
      "type": "function"
    },
    {
      "inputs": [],
      "name": "epochLength",
      "outputs": [
        {
          "internalType": "uint256",
          "name": "",
          "type": "uint256"
        }
      ],
      "stateMutability": "view",
      "type": "function"
    },
    {
      "inputs": [
        {
          "internalType": "address",
          "name": "",
          "type": "address"
        }
      ],
      "name": "epochVolumeCaps",
      "outputs": [
        {
          "internalType": "uint256",
          "name": "",
          "type": "uint256"
        }
      ],
      "stateMutability": "view",
      "type": "function"
    },
    {
      "inputs": [
        {
          "internalType": "address",
          "name": "",
          "type": "address"
        }
      ],
      "name": "epochVolumes",
      "outputs": [
        {
          "internalType": "uint256",
          "name": "",
          "type": "uint256"
        }
      ],
      "stateMutability": "view",
      "type": "function"
    },
    {
      "inputs": [
        {
          "internalType": "bytes32",
          "name": "id",
          "type": "bytes32"
        }
      ],
      "name": "executeDelayedTransfer",
      "outputs": [],
      "stateMutability": "nonpayable",
      "type": "function"
    },
    {
      "inputs": [
        {
          "internalType": "address",
          "name": "",
          "type": "address"
        }
      ],
      "name": "governors",
      "outputs": [
        {
          "internalType": "bool",
          "name": "",
          "type": "bool"
        }
      ],
      "stateMutability": "view",
      "type": "function"
    },
    {
      "inputs": [
        {
          "internalType": "address",
          "name": "_account",
          "type": "address"
        }
      ],
      "name": "isGovernor",
      "outputs": [
        {
          "internalType": "bool",
          "name": "",
          "type": "bool"
        }
      ],
      "stateMutability": "view",
      "type": "function"
    },
    {
      "inputs": [
        {
          "internalType": "address",
          "name": "account",
          "type": "address"
        }
      ],
      "name": "isPauser",
      "outputs": [
        {
          "internalType": "bool",
          "name": "",
          "type": "bool"
        }
      ],
      "stateMutability": "view",
      "type": "function"
    },
    {
      "inputs": [
        {
          "internalType": "address",
          "name": "",
          "type": "address"
        }
      ],
      "name": "lastOpTimestamps",
      "outputs": [
        {
          "internalType": "uint256",
          "name": "",
          "type": "uint256"
        }
      ],
      "stateMutability": "view",
      "type": "function"
    },
    {
      "inputs": [
        {
          "internalType": "address",
          "name": "",
          "type": "address"
        }
      ],
      "name": "maxDeposit",
      "outputs": [
        {
          "internalType": "uint256",
          "name": "",
          "type": "uint256"
        }
      ],
      "stateMutability": "view",
      "type": "function"
    },
    {
      "inputs": [
        {
          "internalType": "address",
          "name": "",
          "type": "address"
        }
      ],
      "name": "minDeposit",
      "outputs": [
        {
          "internalType": "uint256",
          "name": "",
          "type": "uint256"
        }
      ],
      "stateMutability": "view",
      "type": "function"
    },
    {
      "inputs": [],
      "name": "nativeTokenTransferGas",
      "outputs": [
        {
          "internalType": "uint256",
          "name": "",
          "type": "uint256"
        }
      ],
      "stateMutability": "view",
      "type": "function"
    },
    {
      "inputs": [],
      "name": "nativeWrap",
      "outputs": [
        {
          "internalType": "address",
          "name": "",
          "type": "address"
        }
      ],
      "stateMutability": "view",
      "type": "function"
    },
    {
      "inputs": [],
      "name": "owner",
      "outputs": [
        {
          "internalType": "address",
          "name": "",
          "type": "address"
        }
      ],
      "stateMutability": "view",
      "type": "function"
    },
    {
      "inputs": [],
      "name": "pause",
      "outputs": [],
      "stateMutability": "nonpayable",
      "type": "function"
    },
    {
      "inputs": [],
      "name": "paused",
      "outputs": [
        {
          "internalType": "bool",
          "name": "",
          "type": "bool"
        }
      ],
      "stateMutability": "view",
      "type": "function"
    },
    {
      "inputs": [
        {
          "internalType": "address",
          "name": "",
          "type": "address"
        }
      ],
      "name": "pausers",
      "outputs": [
        {
          "internalType": "bool",
          "name": "",
          "type": "bool"
        }
      ],
      "stateMutability": "view",
      "type": "function"
    },
    {
      "inputs": [
        {
          "internalType": "bytes32",
          "name": "",
          "type": "bytes32"
        }
      ],
      "name": "records",
      "outputs": [
        {
          "internalType": "bool",
          "name": "",
          "type": "bool"
        }
      ],
      "stateMutability": "view",
      "type": "function"
    },
    {
      "inputs": [
        {
          "internalType": "address",
          "name": "_account",
          "type": "address"
        }
      ],
      "name": "removeGovernor",
      "outputs": [],
      "stateMutability": "nonpayable",
      "type": "function"
    },
    {
      "inputs": [
        {
          "internalType": "address",
          "name": "account",
          "type": "address"
        }
      ],
      "name": "removePauser",
      "outputs": [],
      "stateMutability": "nonpayable",
      "type": "function"
    },
    {
      "inputs": [],
      "name": "renounceGovernor",
      "outputs": [],
      "stateMutability": "nonpayable",
      "type": "function"
    },
    {
      "inputs": [],
      "name": "renouncePauser",
      "outputs": [],
      "stateMutability": "nonpayable",
      "type": "function"
    },
    {
      "inputs": [
        {
          "internalType": "uint256",
          "name": "_period",
          "type": "uint256"
        }
      ],
      "name": "setDelayPeriod",
      "outputs": [],
      "stateMutability": "nonpayable",
      "type": "function"
    },
    {
      "inputs": [
        {
          "internalType": "address[]",
          "name": "_tokens",
          "type": "address[]"
        },
        {
          "internalType": "uint256[]",
          "name": "_thresholds",
          "type": "uint256[]"
        }
      ],
      "name": "setDelayThresholds",
      "outputs": [],
      "stateMutability": "nonpayable",
      "type": "function"
    },
    {
      "inputs": [
        {
          "internalType": "uint256",
          "name": "_length",
          "type": "uint256"
        }
      ],
      "name": "setEpochLength",
      "outputs": [],
      "stateMutability": "nonpayable",
      "type": "function"
    },
    {
      "inputs": [
        {
          "internalType": "address[]",
          "name": "_tokens",
          "type": "address[]"
        },
        {
          "internalType": "uint256[]",
          "name": "_caps",
          "type": "uint256[]"
        }
      ],
      "name": "setEpochVolumeCaps",
      "outputs": [],
      "stateMutability": "nonpayable",
      "type": "function"
    },
    {
      "inputs": [
        {
          "internalType": "address[]",
          "name": "_tokens",
          "type": "address[]"
        },
        {
          "internalType": "uint256[]",
          "name": "_amounts",
          "type": "uint256[]"
        }
      ],
      "name": "setMaxDeposit",
      "outputs": [],
      "stateMutability": "nonpayable",
      "type": "function"
    },
    {
      "inputs": [
        {
          "internalType": "address[]",
          "name": "_tokens",
          "type": "address[]"
        },
        {
          "internalType": "uint256[]",
          "name": "_amounts",
          "type": "uint256[]"
        }
      ],
      "name": "setMinDeposit",
      "outputs": [],
      "stateMutability": "nonpayable",
      "type": "function"
    },
    {
      "inputs": [
        {
          "internalType": "uint256",
          "name": "_gasUsed",
          "type": "uint256"
        }
      ],
      "name": "setNativeTokenTransferGas",
      "outputs": [],
      "stateMutability": "nonpayable",
      "type": "function"
    },
    {
      "inputs": [
        {
          "internalType": "address",
          "name": "_weth",
          "type": "address"
        }
      ],
      "name": "setWrap",
      "outputs": [],
      "stateMutability": "nonpayable",
      "type": "function"
    },
    {
      "inputs": [],
      "name": "sigsVerifier",
      "outputs": [
        {
          "internalType": "contract ISigsVerifier",
          "name": "",
          "type": "address"
        }
      ],
      "stateMutability": "view",
      "type": "function"
    },
    {
      "inputs": [
        {
          "internalType": "address",
          "name": "newOwner",
          "type": "address"
        }
      ],
      "name": "transferOwnership",
      "outputs": [],
      "stateMutability": "nonpayable",
      "type": "function"
    },
    {
      "inputs": [],
      "name": "unpause",
      "outputs": [],
      "stateMutability": "nonpayable",
      "type": "function"
    },
    {
      "inputs": [
        {
          "internalType": "bytes",
          "name": "_request",
          "type": "bytes"
        },
        {
          "internalType": "bytes[]",
          "name": "_sigs",
          "type": "bytes[]"
        },
        {
          "internalType": "address[]",
          "name": "_signers",
          "type": "address[]"
        },
        {
          "internalType": "uint256[]",
          "name": "_powers",
          "type": "uint256[]"
        }
      ],
      "name": "withdraw",
      "outputs": [],
      "stateMutability": "nonpayable",
      "type": "function"
    },
    {
      "stateMutability": "payable",
      "type": "receive"
    }
  ],
  "transactionHash": "0x97223cd0c5834cd4156ef3f6d6f2abcf72616aacabed2af358c1c0155276e9f6",
  "args": [
    "0x91830A8f5f20ef56804Ce2E7b2d727aD89Cb995f"
  ],
  "numDeployments": 1,
  "solcInputHash": "599f975210cdab3113358d43cb6a3e35",
  "bytecode": "0x60a060405261c350600f553480156200001757600080fd5b50604051620037f7380380620037f78339810160408190526200003a916200025b565b60016000556200004a336200007f565b6001805460ff60a01b191690556200006233620000d1565b6200006d336200019b565b6001600160a01b03166080526200028d565b600180546001600160a01b038381166001600160a01b0319831681179093556040519116919082907f8be0079c531659141344cd1fd0a4f28419497f9722a3daafe3b4186f6b6457e090600090a35050565b6001600160a01b03811660009081526002602052604090205460ff1615620001405760405162461bcd60e51b815260206004820152601960248201527f4163636f756e7420697320616c7265616479207061757365720000000000000060448201526064015b60405180910390fd5b6001600160a01b038116600081815260026020908152604091829020805460ff1916600117905590519182527f6719d08c1888103bea251a4ed56406bd0c3e69723c8a1686e017e7bbe159b6f891015b60405180910390a150565b6001600160a01b03811660009081526003602052604090205460ff1615620002065760405162461bcd60e51b815260206004820152601b60248201527f4163636f756e7420697320616c726561647920676f7665726e6f720000000000604482015260640162000137565b6001600160a01b038116600081815260036020908152604091829020805460ff1916600117905590519182527fdc5a48d79e2e147530ff63ecdbed5a5a66adb9d5cf339384d5d076da197c40b5910162000190565b6000602082840312156200026e57600080fd5b81516001600160a01b03811681146200028657600080fd5b9392505050565b608051613547620002b06000396000818161079e01526117d301526135476000f3fe6080604052600436106102be5760003560e01c80636ef8d66d1161016e578063b517b550116100cb578063e3eece261161007f578063eecdac8811610064578063eecdac881461085e578063f2fde38b1461087e578063f83213831461089e57600080fd5b8063e3eece26146107f5578063e43581b81461082557600080fd5b8063ccf2683b116100b0578063ccf2683b1461078c578063cefe0df5146107c0578063e026049c146107e057600080fd5b8063b517b55014610749578063b5f2bc471461075f57600080fd5b80639e25fc5c11610122578063a21a928011610107578063a21a928014610699578063adc0d57f146106b9578063b1c94d941461073357600080fd5b80639e25fc5c146106595780639ff9001a1461067957600080fd5b806382dc1ec41161015357806382dc1ec4146106065780638456cb59146106265780638da5cb5b1461063b57600080fd5b80636ef8d66d146105c157806380f51c12146105d657600080fd5b8063457bfa2f1161021c57806357d775f8116101d05780635ec2fa26116101b55780635ec2fa261461055457806360216b00146105745780636b2c0f55146105a157600080fd5b806357d775f81461051f5780635c975abb1461053557600080fd5b806347b16c6c1161020157806347b16c6c146104b257806352532faa146104d257806354eea796146104ff57600080fd5b8063457bfa2f1461044157806346fbf68e1461047957600080fd5b80633c29f839116102735780633d572107116102585780633d572107146103df5780633f4ba83a146103ff578063402d267d1461041457600080fd5b80633c29f839146103845780633c4a25d0146103bf57600080fd5b806317bdbae5116102a457806317bdbae5146103245780632346362414610344578063303b64421461036457600080fd5b8062a95fd7146102ca57806301e64725146102df57600080fd5b366102c557005b600080fd5b6102dd6102d8366004612f69565b6108cb565b005b3480156102eb57600080fd5b5061030f6102fa366004612fb6565b600b6020526000908152604090205460ff1681565b60405190151581526020015b60405180910390f35b34801561033057600080fd5b506102dd61033f36600461301b565b610b23565b34801561035057600080fd5b506102dd61035f366004613087565b610cc1565b34801561037057600080fd5b506102dd61037f36600461301b565b610dfe565b34801561039057600080fd5b506103b161039f3660046130e5565b600c6020526000908152604090205481565b60405190815260200161031b565b3480156103cb57600080fd5b506102dd6103da3660046130e5565b610f95565b3480156103eb57600080fd5b506102dd6103fa366004612fb6565b61100a565b34801561040b57600080fd5b506102dd61109e565b34801561042057600080fd5b506103b161042f3660046130e5565b600d6020526000908152604090205481565b34801561044d57600080fd5b50600e54610461906001600160a01b031681565b6040516001600160a01b03909116815260200161031b565b34801561048557600080fd5b5061030f6104943660046130e5565b6001600160a01b031660009081526002602052604090205460ff1690565b3480156104be57600080fd5b506102dd6104cd36600461301b565b611107565b3480156104de57600080fd5b506103b16104ed3660046130e5565b60096020526000908152604090205481565b34801561050b57600080fd5b506102dd61051a366004612fb6565b61129e565b34801561052b57600080fd5b506103b160045481565b34801561054157600080fd5b50600154600160a01b900460ff1661030f565b34801561056057600080fd5b506102dd61056f36600461301b565b61132b565b34801561058057600080fd5b506103b161058f3660046130e5565b60056020526000908152604090205481565b3480156105ad57600080fd5b506102dd6105bc3660046130e5565b6114c2565b3480156105cd57600080fd5b506102dd611534565b3480156105e257600080fd5b5061030f6105f13660046130e5565b60026020526000908152604090205460ff1681565b34801561061257600080fd5b506102dd6106213660046130e5565b61153d565b34801561063257600080fd5b506102dd6115af565b34801561064757600080fd5b506001546001600160a01b0316610461565b34801561066557600080fd5b506102dd610674366004612fb6565b611616565b34801561068557600080fd5b506102dd6106943660046130e5565b61168b565b3480156106a557600080fd5b506102dd6106b4366004613100565b611716565b3480156106c557600080fd5b506107086106d4366004612fb6565b60086020526000908152604090208054600182015460028301546003909301546001600160a01b0392831693919092169184565b604080516001600160a01b03958616815294909316602085015291830152606082015260800161031b565b34801561073f57600080fd5b506103b1600a5481565b34801561075557600080fd5b506103b1600f5481565b34801561076b57600080fd5b506103b161077a3660046130e5565b60066020526000908152604090205481565b34801561079857600080fd5b506104617f000000000000000000000000000000000000000000000000000000000000000081565b3480156107cc57600080fd5b506102dd6107db366004612fb6565b611ad2565b3480156107ec57600080fd5b506102dd611b2f565b34801561080157600080fd5b5061030f6108103660046130e5565b60036020526000908152604090205460ff1681565b34801561083157600080fd5b5061030f6108403660046130e5565b6001600160a01b031660009081526003602052604090205460ff1690565b34801561086a57600080fd5b506102dd6108793660046130e5565b611b38565b34801561088a57600080fd5b506102dd6108993660046130e5565b611baa565b3480156108aa57600080fd5b506103b16108b93660046130e5565b60076020526000908152604090205481565b6002600054036109225760405162461bcd60e51b815260206004820152601f60248201527f5265656e7472616e637947756172643a207265656e7472616e742063616c6c0060448201526064015b60405180910390fd5b6002600055600154600160a01b900460ff16156109745760405162461bcd60e51b815260206004820152601060248201526f14185d5cd8589b194e881c185d5cd95960821b6044820152606401610919565b8334146109c35760405162461bcd60e51b815260206004820152600f60248201527f416d6f756e74206d69736d6174636800000000000000000000000000000000006044820152606401610919565b600e546001600160a01b0316610a1b5760405162461bcd60e51b815260206004820152601360248201527f4e61746976652077726170206e6f7420736574000000000000000000000000006044820152606401610919565b600e54600090610a37906001600160a01b031686868686611c98565b9050600e60009054906101000a90046001600160a01b03166001600160a01b031663d0e30db0866040518263ffffffff1660e01b81526004016000604051808303818588803b158015610a8957600080fd5b505af1158015610a9d573d6000803e3d6000fd5b5050600e54604080518681523360208201526001600160a01b0392831691810191909152606081018a905267ffffffffffffffff8916608082015290871660a08201527f15d2eeefbe4963b5b2178f239ddcc730dda55f1c23c22efb79ded0eb854ac789935060c0019150610b0f9050565b60405180910390a150506001600055505050565b3360009081526003602052604090205460ff16610b7b5760405162461bcd60e51b815260206004820152601660248201527521b0b63632b91034b9903737ba1033b7bb32b93737b960511b6044820152606401610919565b828114610bbc5760405162461bcd60e51b815260206004820152600f60248201526e0d8cadccee8d040dad2e6dac2e8c6d608b1b6044820152606401610919565b60005b83811015610cba57828282818110610bd957610bd96131ef565b9050602002013560096000878785818110610bf657610bf66131ef565b9050602002016020810190610c0b91906130e5565b6001600160a01b031681526020810191909152604001600020557fceaad6533bfb481492fb3e08ef19297f46611b8fa9de5ef4cf8dc23a56ad09ce858583818110610c5857610c586131ef565b9050602002016020810190610c6d91906130e5565b848484818110610c7f57610c7f6131ef565b604080516001600160a01b0390951685526020918202939093013590840152500160405180910390a180610cb28161321b565b915050610bbf565b5050505050565b600260005403610d135760405162461bcd60e51b815260206004820152601f60248201527f5265656e7472616e637947756172643a207265656e7472616e742063616c6c006044820152606401610919565b6002600055600154600160a01b900460ff1615610d655760405162461bcd60e51b815260206004820152601060248201526f14185d5cd8589b194e881c185d5cd95960821b6044820152606401610919565b6000610d748686868686611c98565b9050610d8b6001600160a01b038716333088611e8e565b604080518281523360208201526001600160a01b03888116828401526060820188905267ffffffffffffffff87166080830152851660a082015290517f15d2eeefbe4963b5b2178f239ddcc730dda55f1c23c22efb79ded0eb854ac7899181900360c00190a15050600160005550505050565b3360009081526003602052604090205460ff16610e565760405162461bcd60e51b815260206004820152601660248201527521b0b63632b91034b9903737ba1033b7bb32b93737b960511b6044820152606401610919565b828114610e975760405162461bcd60e51b815260206004820152600f60248201526e0d8cadccee8d040dad2e6dac2e8c6d608b1b6044820152606401610919565b60005b83811015610cba57828282818110610eb457610eb46131ef565b90506020020135600d6000878785818110610ed157610ed16131ef565b9050602002016020810190610ee691906130e5565b6001600160a01b031681526020810191909152604001600020557f0e5d348f9737ccc8b4cf0eea0ccf3670af071af8bea5d64664f10e700c08de72858583818110610f3357610f336131ef565b9050602002016020810190610f4891906130e5565b848484818110610f5a57610f5a6131ef565b604080516001600160a01b0390951685526020918202939093013590840152500160405180910390a180610f8d8161321b565b915050610e9a565b33610fa86001546001600160a01b031690565b6001600160a01b031614610ffe5760405162461bcd60e51b815260206004820181905260248201527f4f776e61626c653a2063616c6c6572206973206e6f7420746865206f776e65726044820152606401610919565b61100781611f2c565b50565b3360009081526003602052604090205460ff166110625760405162461bcd60e51b815260206004820152601660248201527521b0b63632b91034b9903737ba1033b7bb32b93737b960511b6044820152606401610919565b600a8190556040518181527fc0a39f234199b125fb93713c4d067bdcebbf691087f87b79c0feb92b156ba8b6906020015b60405180910390a150565b3360009081526002602052604090205460ff166110fd5760405162461bcd60e51b815260206004820152601460248201527f43616c6c6572206973206e6f74207061757365720000000000000000000000006044820152606401610919565b611105611fe9565b565b3360009081526003602052604090205460ff1661115f5760405162461bcd60e51b815260206004820152601660248201527521b0b63632b91034b9903737ba1033b7bb32b93737b960511b6044820152606401610919565b8281146111a05760405162461bcd60e51b815260206004820152600f60248201526e0d8cadccee8d040dad2e6dac2e8c6d608b1b6044820152606401610919565b60005b83811015610cba578282828181106111bd576111bd6131ef565b90506020020135600660008787858181106111da576111da6131ef565b90506020020160208101906111ef91906130e5565b6001600160a01b031681526020810191909152604001600020557f608e49c22994f20b5d3496dca088b88dfd81b4a3e8cc3809ea1e10a320107e8985858381811061123c5761123c6131ef565b905060200201602081019061125191906130e5565b848484818110611263576112636131ef565b604080516001600160a01b0390951685526020918202939093013590840152500160405180910390a1806112968161321b565b9150506111a3565b3360009081526003602052604090205460ff166112f65760405162461bcd60e51b815260206004820152601660248201527521b0b63632b91034b9903737ba1033b7bb32b93737b960511b6044820152606401610919565b60048190556040518181527f2664fec2ff76486ac58ed087310855b648b15b9d19f3de8529e95f7c46b7d6b390602001611093565b3360009081526003602052604090205460ff166113835760405162461bcd60e51b815260206004820152601660248201527521b0b63632b91034b9903737ba1033b7bb32b93737b960511b6044820152606401610919565b8281146113c45760405162461bcd60e51b815260206004820152600f60248201526e0d8cadccee8d040dad2e6dac2e8c6d608b1b6044820152606401610919565b60005b83811015610cba578282828181106113e1576113e16131ef565b90506020020135600c60008787858181106113fe576113fe6131ef565b905060200201602081019061141391906130e5565b6001600160a01b031681526020810191909152604001600020557f0f48d517989455cd80ed52427e80553e66f9b69fd5cee8e26bd1a1f9c364fba6858583818110611460576114606131ef565b905060200201602081019061147591906130e5565b848484818110611487576114876131ef565b604080516001600160a01b0390951685526020918202939093013590840152500160405180910390a1806114ba8161321b565b9150506113c7565b336114d56001546001600160a01b031690565b6001600160a01b03161461152b5760405162461bcd60e51b815260206004820181905260248201527f4f776e61626c653a2063616c6c6572206973206e6f7420746865206f776e65726044820152606401610919565b6110078161208f565b6111053361208f565b336115506001546001600160a01b031690565b6001600160a01b0316146115a65760405162461bcd60e51b815260206004820181905260248201527f4f776e61626c653a2063616c6c6572206973206e6f7420746865206f776e65726044820152606401610919565b61100781612148565b3360009081526002602052604090205460ff1661160e5760405162461bcd60e51b815260206004820152601460248201527f43616c6c6572206973206e6f74207061757365720000000000000000000000006044820152606401610919565b611105612205565b600154600160a01b900460ff16156116635760405162461bcd60e51b815260206004820152601060248201526f14185d5cd8589b194e881c185d5cd95960821b6044820152606401610919565b600061166e8261228d565b9050611687816000015182602001518360400151612452565b5050565b3361169e6001546001600160a01b031690565b6001600160a01b0316146116f45760405162461bcd60e51b815260206004820181905260248201527f4f776e61626c653a2063616c6c6572206973206e6f7420746865206f776e65726044820152606401610919565b600e80546001600160a01b0319166001600160a01b0392909216919091179055565b600154600160a01b900460ff16156117635760405162461bcd60e51b815260206004820152601060248201526f14185d5cd8589b194e881c185d5cd95960821b6044820152606401610919565b600046306040516020016117b992919091825260601b6bffffffffffffffffffffffff191660208201527f57697468647261770000000000000000000000000000000000000000000000006034820152603c0190565b6040516020818303038152906040528051906020012090507f00000000000000000000000000000000000000000000000000000000000000006001600160a01b031663682dbc22828b8b60405160200161181593929190613234565b6040516020818303038152906040528989898989896040518863ffffffff1660e01b815260040161184c9796959493929190613359565b60006040518083038186803b15801561186457600080fd5b505afa158015611878573d6000803e3d6000fd5b5050505060006118bd8a8a8080601f01602080910402602001604051908101604052809392919081815260200183838082843760009201919091525061258492505050565b6020818101518251604080850151606080870151608088015160a0890151855197841b6bffffffffffffffffffffffff19908116898b015296841b871660348901526048880194909452911b909316606885015260c09290921b77ffffffffffffffffffffffffffffffffffffffffffffffff1916607c8401526084808401929092528051808403909201825260a490920182528051908301206000818152600b9093529120549192509060ff16156119a85760405162461bcd60e51b815260206004820152600d60248201526c7265636f72642065786973747360981b6044820152606401610919565b6000818152600b602052604090819020805460ff191660011790558251908301516119d391906126e0565b81516001600160a01b031660009081526009602052604090205480158015906119ff5750808360400151115b15611a2157611a1c828460200151856000015186604001516127fe565b611a38565b611a38836020015184600001518560400151612452565b602080840151845160408087015160808089015160a0808b01516060808d015187518d81526001600160a01b039a8b169b81019b909b52978916968a01969096529488019390935267ffffffffffffffff16908601528401521660c08201527f296a629c5265cb4e5319803d016902eb70a9079b89655fe2b7737821ed88beeb9060e00160405180910390a1505050505050505050505050565b3360009081526003602052604090205460ff16611b2a5760405162461bcd60e51b815260206004820152601660248201527521b0b63632b91034b9903737ba1033b7bb32b93737b960511b6044820152606401610919565b600f55565b61110533612911565b33611b4b6001546001600160a01b031690565b6001600160a01b031614611ba15760405162461bcd60e51b815260206004820181905260248201527f4f776e61626c653a2063616c6c6572206973206e6f7420746865206f776e65726044820152606401610919565b61100781612911565b33611bbd6001546001600160a01b031690565b6001600160a01b031614611c135760405162461bcd60e51b815260206004820181905260248201527f4f776e61626c653a2063616c6c6572206973206e6f7420746865206f776e65726044820152606401610919565b6001600160a01b038116611c8f5760405162461bcd60e51b815260206004820152602660248201527f4f776e61626c653a206e6577206f776e657220697320746865207a65726f206160448201527f64647265737300000000000000000000000000000000000000000000000000006064820152608401610919565b611007816129ca565b6001600160a01b0385166000908152600c60205260408120548511611cff5760405162461bcd60e51b815260206004820152601060248201527f616d6f756e7420746f6f20736d616c6c000000000000000000000000000000006044820152606401610919565b6001600160a01b0386166000908152600d60205260409020541580611d3c57506001600160a01b0386166000908152600d60205260409020548511155b611d885760405162461bcd60e51b815260206004820152601060248201527f616d6f756e7420746f6f206c61726765000000000000000000000000000000006044820152606401610919565b6040516bffffffffffffffffffffffff1933606090811b8216602084015288811b821660348401526048830188905277ffffffffffffffffffffffffffffffffffffffffffffffff1960c088811b821660688601529187901b909216607084015284811b8216608484015246901b16608c82015260009060940160408051601f1981840301815291815281516020928301206000818152600b90935291205490915060ff1615611e6a5760405162461bcd60e51b815260206004820152600d60248201526c7265636f72642065786973747360981b6044820152606401610919565b6000818152600b60205260409020805460ff19166001179055905095945050505050565b6040516001600160a01b0380851660248301528316604482015260648101829052611f269085906323b872dd60e01b906084015b60408051601f198184030181529190526020810180517bffffffffffffffffffffffffffffffffffffffffffffffffffffffff167fffffffff0000000000000000000000000000000000000000000000000000000090931692909217909152612a1c565b50505050565b6001600160a01b03811660009081526003602052604090205460ff1615611f955760405162461bcd60e51b815260206004820152601b60248201527f4163636f756e7420697320616c726561647920676f7665726e6f7200000000006044820152606401610919565b6001600160a01b038116600081815260036020908152604091829020805460ff1916600117905590519182527fdc5a48d79e2e147530ff63ecdbed5a5a66adb9d5cf339384d5d076da197c40b59101611093565b600154600160a01b900460ff166120425760405162461bcd60e51b815260206004820152601460248201527f5061757361626c653a206e6f74207061757365640000000000000000000000006044820152606401610919565b6001805460ff60a01b191690557f5db9ee0a495bf2e6ff9c91a7834c1ba4fdd244a5e8aa4e537bd38aeae4b073aa335b6040516001600160a01b03909116815260200160405180910390a1565b6001600160a01b03811660009081526002602052604090205460ff166120f75760405162461bcd60e51b815260206004820152601560248201527f4163636f756e74206973206e6f742070617573657200000000000000000000006044820152606401610919565b6001600160a01b038116600081815260026020908152604091829020805460ff1916905590519182527fcd265ebaf09df2871cc7bd4133404a235ba12eff2041bb89d9c714a2621c7c7e9101611093565b6001600160a01b03811660009081526002602052604090205460ff16156121b15760405162461bcd60e51b815260206004820152601960248201527f4163636f756e7420697320616c726561647920706175736572000000000000006044820152606401610919565b6001600160a01b038116600081815260026020908152604091829020805460ff1916600117905590519182527f6719d08c1888103bea251a4ed56406bd0c3e69723c8a1686e017e7bbe159b6f89101611093565b600154600160a01b900460ff16156122525760405162461bcd60e51b815260206004820152601060248201526f14185d5cd8589b194e881c185d5cd95960821b6044820152606401610919565b6001805460ff60a01b1916600160a01b1790557f62e78cea01bee320cd4e420270b5ea74000d11b0c9f74754ebdbfc544b05a2586120723390565b604080516080810182526000808252602082018190529181018290526060810191909152600082815260086020908152604091829020825160808101845281546001600160a01b039081168252600183015416928101929092526002810154928201929092526003909101546060820181905261234c5760405162461bcd60e51b815260206004820152601a60248201527f64656c61796564207472616e73666572206e6f742065786973740000000000006044820152606401610919565b600a54816060015161235e9190613435565b42116123ac5760405162461bcd60e51b815260206004820152601d60248201527f64656c61796564207472616e73666572207374696c6c206c6f636b65640000006044820152606401610919565b600083815260086020908152604080832080546001600160a01b03199081168255600182018054909116905560028101849055600301929092558251908301518383015192517f3b40e5089937425d14cdd96947e5661868357e224af59bd8b24a4b8a330d44269361244493889390929091909384526001600160a01b03928316602085015291166040830152606082015260800190565b60405180910390a192915050565b600e546001600160a01b039081169083160361256b57600e54604051632e1a7d4d60e01b8152600481018390526001600160a01b0390911690632e1a7d4d90602401600060405180830381600087803b1580156124ae57600080fd5b505af11580156124c2573d6000803e3d6000fd5b5050600f54604051600093506001600160a01b0387169250849084818181858888f193505050503d8060008114612515576040519150601f19603f3d011682016040523d82523d6000602084013e61251a565b606091505b5050905080611f265760405162461bcd60e51b815260206004820152601b60248201527f6661696c656420746f2073656e64206e617469766520746f6b656e00000000006044820152606401610919565b61257f6001600160a01b0383168483612b01565b505050565b6040805160c08101825260008082526020808301829052828401829052606083018290526080830182905260a0830182905283518085019094528184528301849052909190805b602083015151835110156126d8576125e283612b31565b909250905081600103612610576126006125fb84612b6b565b612c28565b6001600160a01b031684526125cb565b81600203612637576126246125fb84612b6b565b6001600160a01b031660208501526125cb565b8160030361265a5761265061264b84612b6b565b612c39565b60408501526125cb565b816004036126815761266e6125fb84612b6b565b6001600160a01b031660608501526125cb565b816005036126a65761269283612c70565b67ffffffffffffffff1660808501526125cb565b816006036126c9576126bf6126ba84612b6b565b612ceb565b60a08501526125cb565b6126d38382612d03565b6125cb565b505050919050565b6004546000036126ee575050565b6001600160a01b0382166000908152600660205260408120549081900361271457505050565b6001600160a01b0383166000908152600560205260408120546004549091429161273e8184613448565b612748919061346a565b6001600160a01b03871660009081526007602052604090205490915081111561277357849250612780565b61277d8584613435565b92505b838311156127d05760405162461bcd60e51b815260206004820152601260248201527f766f6c756d6520657863656564732063617000000000000000000000000000006044820152606401610919565b506001600160a01b039094166000908152600560209081526040808320939093556007905220929092555050565b6000848152600860205260409020600301541561285d5760405162461bcd60e51b815260206004820152601f60248201527f64656c61796564207472616e7366657220616c726561647920657869737473006044820152606401610919565b604080516080810182526001600160a01b0380861682528481166020808401918252838501868152426060860190815260008b8152600890935291869020945185549085166001600160a01b031991821617865592516001860180549190951693169290921790925551600283015551600390910155517fcbcfffe5102114216a85d3aceb14ad4b81a3935b1b5c468fadf3889eb9c5dce6906129039086815260200190565b60405180910390a150505050565b6001600160a01b03811660009081526003602052604090205460ff166129795760405162461bcd60e51b815260206004820152601760248201527f4163636f756e74206973206e6f7420676f7665726e6f720000000000000000006044820152606401610919565b6001600160a01b038116600081815260036020908152604091829020805460ff1916905590519182527f1ebe834e73d60a5fec822c1e1727d34bc79f2ad977ed504581cc1822fe20fb5b9101611093565b600180546001600160a01b038381166001600160a01b0319831681179093556040519116919082907f8be0079c531659141344cd1fd0a4f28419497f9722a3daafe3b4186f6b6457e090600090a35050565b6000612a71826040518060400160405280602081526020017f5361666545524332303a206c6f772d6c6576656c2063616c6c206661696c6564815250856001600160a01b0316612d739092919063ffffffff16565b80519091501561257f5780806020019051810190612a8f9190613481565b61257f5760405162461bcd60e51b815260206004820152602a60248201527f5361666545524332303a204552433230206f7065726174696f6e20646964206e60448201527f6f742073756363656564000000000000000000000000000000000000000000006064820152608401610919565b6040516001600160a01b03831660248201526044810182905261257f90849063a9059cbb60e01b90606401611ec2565b6000806000612b3f84612c70565b9050612b4c600882613448565b9250806007166005811115612b6357612b636134a3565b915050915091565b60606000612b7883612c70565b90506000818460000151612b8c9190613435565b9050836020015151811115612ba057600080fd5b8167ffffffffffffffff811115612bb957612bb96134b9565b6040519080825280601f01601f191660200182016040528015612be3576020820181803683370190505b50602080860151865192955091818601919083010160005b85811015612c1d578181015183820152612c16602082613435565b9050612bfb565b505050935250919050565b6000612c3382612d8c565b92915050565b6000602082511115612c4a57600080fd5b6020820151905081516020612c5f91906134cf565b612c6a90600861346a565b1c919050565b602080820151825181019091015160009182805b600a8110156102c55783811a9150612c9d81600761346a565b82607f16901b8517945081608016600003612cd957612cbd816001613435565b86518790612ccc908390613435565b9052509395945050505050565b80612ce38161321b565b915050612c84565b60008151602014612cfb57600080fd5b506020015190565b6000816005811115612d1757612d176134a3565b03612d255761257f82612c70565b6002816005811115612d3957612d396134a3565b036102c5576000612d4983612c70565b90508083600001818151612d5d9190613435565b9052506020830151518351111561257f57600080fd5b6060612d828484600085612db4565b90505b9392505050565b60008151601414612d9c57600080fd5b50602001516c01000000000000000000000000900490565b606082471015612e2c5760405162461bcd60e51b815260206004820152602660248201527f416464726573733a20696e73756666696369656e742062616c616e636520666f60448201527f722063616c6c00000000000000000000000000000000000000000000000000006064820152608401610919565b6001600160a01b0385163b612e835760405162461bcd60e51b815260206004820152601d60248201527f416464726573733a2063616c6c20746f206e6f6e2d636f6e74726163740000006044820152606401610919565b600080866001600160a01b03168587604051612e9f91906134e2565b60006040518083038185875af1925050503d8060008114612edc576040519150601f19603f3d011682016040523d82523d6000602084013e612ee1565b606091505b5091509150612ef1828286612efc565b979650505050505050565b60608315612f0b575081612d85565b825115612f1b5782518084602001fd5b8160405162461bcd60e51b815260040161091991906134fe565b803567ffffffffffffffff81168114612f4d57600080fd5b919050565b80356001600160a01b0381168114612f4d57600080fd5b60008060008060808587031215612f7f57600080fd5b84359350612f8f60208601612f35565b9250612f9d60408601612f52565b9150612fab60608601612f35565b905092959194509250565b600060208284031215612fc857600080fd5b5035919050565b60008083601f840112612fe157600080fd5b50813567ffffffffffffffff811115612ff957600080fd5b6020830191508360208260051b850101111561301457600080fd5b9250929050565b6000806000806040858703121561303157600080fd5b843567ffffffffffffffff8082111561304957600080fd5b61305588838901612fcf565b9096509450602087013591508082111561306e57600080fd5b5061307b87828801612fcf565b95989497509550505050565b600080600080600060a0868803121561309f57600080fd5b6130a886612f52565b9450602086013593506130bd60408701612f35565b92506130cb60608701612f52565b91506130d960808701612f35565b90509295509295909350565b6000602082840312156130f757600080fd5b612d8582612f52565b6000806000806000806000806080898b03121561311c57600080fd5b883567ffffffffffffffff8082111561313457600080fd5b818b0191508b601f83011261314857600080fd5b81358181111561315757600080fd5b8c602082850101111561316957600080fd5b60209283019a509850908a0135908082111561318457600080fd5b6131908c838d01612fcf565b909850965060408b01359150808211156131a957600080fd5b6131b58c838d01612fcf565b909650945060608b01359150808211156131ce57600080fd5b506131db8b828c01612fcf565b999c989b5096995094979396929594505050565b634e487b7160e01b600052603260045260246000fd5b634e487b7160e01b600052601160045260246000fd5b60006001820161322d5761322d613205565b5060010190565b838152818360208301376000910160200190815292915050565b60005b83811015613269578181015183820152602001613251565b50506000910152565b6000815180845261328a81602086016020860161324e565b601f01601f19169290920160200192915050565b81835281816020850137506000828201602090810191909152601f909101601f19169091010190565b8183526000602080850194508260005b85811015613303576001600160a01b036132f083612f52565b16875295820195908201906001016132d7565b509495945050505050565b81835260007f07ffffffffffffffffffffffffffffffffffffffffffffffffffffffffffffff83111561334057600080fd5b8260051b80836020870137939093016020019392505050565b60808152600061336c608083018a613272565b602083820381850152818983528183019050818a60051b8401018b60005b8c8110156133fa57858303601f190184528135368f9003601e190181126133b057600080fd5b8e01858101903567ffffffffffffffff8111156133cc57600080fd5b8036038213156133db57600080fd5b6133e685828461329e565b95870195945050509084019060010161338a565b5050858103604087015261340f818a8c6132c7565b9350505050828103606084015261342781858761330e565b9a9950505050505050505050565b80820180821115612c3357612c33613205565b60008261346557634e487b7160e01b600052601260045260246000fd5b500490565b8082028115828204841417612c3357612c33613205565b60006020828403121561349357600080fd5b81518015158114612d8557600080fd5b634e487b7160e01b600052602160045260246000fd5b634e487b7160e01b600052604160045260246000fd5b81810381811115612c3357612c33613205565b600082516134f481846020870161324e565b9190910192915050565b602081526000612d85602083018461327256fea2646970667358221220e9c2cd7d3704ad1155759ac4ec0c431cd1aec71a4798a8843cc6d2df67c975ee64736f6c63430008110033",
  "devdoc": {
    "details": "Work together with PeggedTokenBridge contracts deployed at remote chains",
    "kind": "dev",
    "methods": {
      "deposit(address,uint256,uint64,address,uint64)": {
        "params": {
          "_amount": "The amount to deposit.",
          "_mintAccount": "The destination account to receive the minted pegged tokens.",
          "_mintChainId": "The destination chain ID to mint tokens.",
          "_nonce": "A number input to guarantee unique depositId. Can be timestamp in practice.",
          "_token": "The original token address."
        }
      },
      "depositNative(uint256,uint64,address,uint64)": {
        "params": {
          "_amount": "The amount to deposit.",
          "_mintAccount": "The destination account to receive the minted pegged tokens.",
          "_mintChainId": "The destination chain ID to mint tokens.",
          "_nonce": "A number input to guarantee unique depositId. Can be timestamp in practice."
        }
      },
      "owner()": {
        "details": "Returns the address of the current owner."
      },
      "paused()": {
        "details": "Returns true if the contract is paused, and false otherwise."
      },
      "transferOwnership(address)": {
        "details": "Transfers ownership of the contract to a new account (`newOwner`). Can only be called by the current owner."
      },
      "withdraw(bytes,bytes[],address[],uint256[])": {
        "params": {
          "_powers": "The signing powers of the signers.",
          "_request": "The serialized Withdraw protobuf.",
          "_signers": "The sorted list of signers.",
          "_sigs": "The list of signatures sorted by signing addresses in ascending order. A relay must be signed-off by +2/3 of the bridge's current signing power to be delivered."
        }
      }
    },
    "title": "the vault to deposit and withdraw original tokens",
    "version": 1
  },
  "userdoc": {
    "kind": "user",
    "methods": {
      "deposit(address,uint256,uint64,address,uint64)": {
        "notice": "Lock original tokens to trigger cross-chain mint of pegged tokens at a remote chain's PeggedTokenBridge. NOTE: This function DOES NOT SUPPORT fee-on-transfer / rebasing tokens."
      },
      "depositNative(uint256,uint64,address,uint64)": {
        "notice": "Lock native token as original token to trigger cross-chain mint of pegged tokens at a remote chain's PeggedTokenBridge."
      },
      "withdraw(bytes,bytes[],address[],uint256[])": {
        "notice": "Withdraw locked original tokens triggered by a burn at a remote chain's PeggedTokenBridge."
      }
    },
    "version": 1
  },
  "storageLayout": {
    "storage": [
      {
        "astId": 1346,
        "contract": "contracts/pegged-bridge/OriginalTokenVault.sol:OriginalTokenVault",
        "label": "_status",
        "offset": 0,
        "slot": "0",
        "type": "t_uint256"
      },
      {
        "astId": 35256,
        "contract": "contracts/pegged-bridge/OriginalTokenVault.sol:OriginalTokenVault",
        "label": "_owner",
        "offset": 0,
        "slot": "1",
        "type": "t_address"
      },
      {
        "astId": 1261,
        "contract": "contracts/pegged-bridge/OriginalTokenVault.sol:OriginalTokenVault",
        "label": "_paused",
        "offset": 20,
        "slot": "1",
        "type": "t_bool"
      },
      {
        "astId": 35370,
        "contract": "contracts/pegged-bridge/OriginalTokenVault.sol:OriginalTokenVault",
        "label": "pausers",
        "offset": 0,
        "slot": "2",
        "type": "t_mapping(t_address,t_bool)"
      },
      {
        "astId": 35129,
        "contract": "contracts/pegged-bridge/OriginalTokenVault.sol:OriginalTokenVault",
        "label": "governors",
        "offset": 0,
        "slot": "3",
        "type": "t_mapping(t_address,t_bool)"
      },
      {
        "astId": 35517,
        "contract": "contracts/pegged-bridge/OriginalTokenVault.sol:OriginalTokenVault",
        "label": "epochLength",
        "offset": 0,
        "slot": "4",
        "type": "t_uint256"
      },
      {
        "astId": 35521,
        "contract": "contracts/pegged-bridge/OriginalTokenVault.sol:OriginalTokenVault",
        "label": "epochVolumes",
        "offset": 0,
        "slot": "5",
        "type": "t_mapping(t_address,t_uint256)"
      },
      {
        "astId": 35525,
        "contract": "contracts/pegged-bridge/OriginalTokenVault.sol:OriginalTokenVault",
        "label": "epochVolumeCaps",
        "offset": 0,
        "slot": "6",
        "type": "t_mapping(t_address,t_uint256)"
      },
      {
        "astId": 35529,
        "contract": "contracts/pegged-bridge/OriginalTokenVault.sol:OriginalTokenVault",
        "label": "lastOpTimestamps",
        "offset": 0,
        "slot": "7",
        "type": "t_mapping(t_address,t_uint256)"
      },
      {
        "astId": 34930,
        "contract": "contracts/pegged-bridge/OriginalTokenVault.sol:OriginalTokenVault",
        "label": "delayedTransfers",
        "offset": 0,
        "slot": "8",
        "type": "t_mapping(t_bytes32,t_struct(delayedTransfer)34925_storage)"
      },
      {
        "astId": 34934,
        "contract": "contracts/pegged-bridge/OriginalTokenVault.sol:OriginalTokenVault",
        "label": "delayThresholds",
        "offset": 0,
        "slot": "9",
        "type": "t_mapping(t_address,t_uint256)"
      },
      {
        "astId": 34936,
        "contract": "contracts/pegged-bridge/OriginalTokenVault.sol:OriginalTokenVault",
        "label": "delayPeriod",
        "offset": 0,
        "slot": "10",
        "type": "t_uint256"
      },
      {
        "astId": 27552,
        "contract": "contracts/pegged-bridge/OriginalTokenVault.sol:OriginalTokenVault",
        "label": "records",
        "offset": 0,
        "slot": "11",
        "type": "t_mapping(t_bytes32,t_bool)"
      },
      {
        "astId": 27556,
        "contract": "contracts/pegged-bridge/OriginalTokenVault.sol:OriginalTokenVault",
        "label": "minDeposit",
        "offset": 0,
        "slot": "12",
        "type": "t_mapping(t_address,t_uint256)"
      },
      {
        "astId": 27560,
        "contract": "contracts/pegged-bridge/OriginalTokenVault.sol:OriginalTokenVault",
        "label": "maxDeposit",
        "offset": 0,
        "slot": "13",
        "type": "t_mapping(t_address,t_uint256)"
      },
      {
        "astId": 27562,
        "contract": "contracts/pegged-bridge/OriginalTokenVault.sol:OriginalTokenVault",
        "label": "nativeWrap",
        "offset": 0,
        "slot": "14",
        "type": "t_address"
      },
      {
        "astId": 27565,
        "contract": "contracts/pegged-bridge/OriginalTokenVault.sol:OriginalTokenVault",
        "label": "nativeTokenTransferGas",
        "offset": 0,
        "slot": "15",
        "type": "t_uint256"
      }
    ],
    "types": {
      "t_address": {
        "encoding": "inplace",
        "label": "address",
        "numberOfBytes": "20"
      },
      "t_bool": {
        "encoding": "inplace",
        "label": "bool",
        "numberOfBytes": "1"
      },
      "t_bytes32": {
        "encoding": "inplace",
        "label": "bytes32",
        "numberOfBytes": "32"
      },
      "t_mapping(t_address,t_bool)": {
        "encoding": "mapping",
        "key": "t_address",
        "label": "mapping(address => bool)",
        "numberOfBytes": "32",
        "value": "t_bool"
      },
      "t_mapping(t_address,t_uint256)": {
        "encoding": "mapping",
        "key": "t_address",
        "label": "mapping(address => uint256)",
        "numberOfBytes": "32",
        "value": "t_uint256"
      },
      "t_mapping(t_bytes32,t_bool)": {
        "encoding": "mapping",
        "key": "t_bytes32",
        "label": "mapping(bytes32 => bool)",
        "numberOfBytes": "32",
        "value": "t_bool"
      },
      "t_mapping(t_bytes32,t_struct(delayedTransfer)34925_storage)": {
        "encoding": "mapping",
        "key": "t_bytes32",
        "label": "mapping(bytes32 => struct DelayedTransfer.delayedTransfer)",
        "numberOfBytes": "32",
        "value": "t_struct(delayedTransfer)34925_storage"
      },
      "t_struct(delayedTransfer)34925_storage": {
        "encoding": "inplace",
        "label": "struct DelayedTransfer.delayedTransfer",
        "members": [
          {
            "astId": 34918,
            "contract": "contracts/pegged-bridge/OriginalTokenVault.sol:OriginalTokenVault",
            "label": "receiver",
            "offset": 0,
            "slot": "0",
            "type": "t_address"
          },
          {
            "astId": 34920,
            "contract": "contracts/pegged-bridge/OriginalTokenVault.sol:OriginalTokenVault",
            "label": "token",
            "offset": 0,
            "slot": "1",
            "type": "t_address"
          },
          {
            "astId": 34922,
            "contract": "contracts/pegged-bridge/OriginalTokenVault.sol:OriginalTokenVault",
            "label": "amount",
            "offset": 0,
            "slot": "2",
            "type": "t_uint256"
          },
          {
            "astId": 34924,
            "contract": "contracts/pegged-bridge/OriginalTokenVault.sol:OriginalTokenVault",
            "label": "timestamp",
            "offset": 0,
            "slot": "3",
            "type": "t_uint256"
          }
        ],
        "numberOfBytes": "128"
      },
      "t_uint256": {
        "encoding": "inplace",
        "label": "uint256",
        "numberOfBytes": "32"
      }
    }
  }
}