{
  "address": "0x979F5fBA55d720D900fff3D529ff4ea6EcB5fb96",
  "abi": [
    {
      "inputs": [
        {
          "internalType": "contract Staking",
          "name": "_staking",
          "type": "address"
        }
      ],
      "stateMutability": "nonpayable",
      "type": "constructor"
    },
    {
      "anonymous": false,
      "inputs": [
        {
          "indexed": true,
          "internalType": "address",
          "name": "previousOwner",
          "type": "address"
        },
        {
          "indexed": true,
          "internalType": "address",
          "name": "newOwner",
          "type": "address"
        }
      ],
      "name": "OwnershipTransferred",
      "type": "event"
    },
    {
      "anonymous": false,
      "inputs": [
        {
          "indexed": false,
          "internalType": "address",
          "name": "account",
          "type": "address"
        }
      ],
      "name": "Paused",
      "type": "event"
    },
    {
      "anonymous": false,
      "inputs": [
        {
          "indexed": false,
          "internalType": "address",
          "name": "account",
          "type": "address"
        }
      ],
      "name": "PauserAdded",
      "type": "event"
    },
    {
      "anonymous": false,
      "inputs": [
        {
          "indexed": false,
          "internalType": "address",
          "name": "account",
          "type": "address"
        }
      ],
      "name": "PauserRemoved",
      "type": "event"
    },
    {
      "anonymous": false,
      "inputs": [
        {
          "indexed": true,
          "internalType": "address",
          "name": "recipient",
          "type": "address"
        },
        {
          "indexed": false,
          "internalType": "uint256",
          "name": "reward",
          "type": "uint256"
        }
      ],
      "name": "StakingRewardClaimed",
      "type": "event"
    },
    {
      "anonymous": false,
      "inputs": [
        {
          "indexed": true,
          "internalType": "address",
          "name": "contributor",
          "type": "address"
        },
        {
          "indexed": false,
          "internalType": "uint256",
          "name": "contribution",
          "type": "uint256"
        }
      ],
      "name": "StakingRewardContributed",
      "type": "event"
    },
    {
      "anonymous": false,
      "inputs": [
        {
          "indexed": false,
          "internalType": "address",
          "name": "account",
          "type": "address"
        }
      ],
      "name": "Unpaused",
      "type": "event"
    },
    {
      "inputs": [
        {
          "internalType": "address",
          "name": "account",
          "type": "address"
        }
      ],
      "name": "addPauser",
      "outputs": [],
      "stateMutability": "nonpayable",
      "type": "function"
    },
    {
      "inputs": [
        {
          "internalType": "bytes",
          "name": "_rewardRequest",
          "type": "bytes"
        },
        {
          "internalType": "bytes[]",
          "name": "_sigs",
          "type": "bytes[]"
        }
      ],
      "name": "claimReward",
      "outputs": [],
      "stateMutability": "nonpayable",
      "type": "function"
    },
    {
      "inputs": [
        {
          "internalType": "address",
          "name": "",
          "type": "address"
        }
      ],
      "name": "claimedRewardAmounts",
      "outputs": [
        {
          "internalType": "uint256",
          "name": "",
          "type": "uint256"
        }
      ],
      "stateMutability": "view",
      "type": "function"
    },
    {
      "inputs": [
        {
          "internalType": "uint256",
          "name": "_amount",
          "type": "uint256"
        }
      ],
      "name": "contributeToRewardPool",
      "outputs": [],
      "stateMutability": "nonpayable",
      "type": "function"
    },
    {
      "inputs": [
        {
          "internalType": "uint256",
          "name": "_amount",
          "type": "uint256"
        }
      ],
      "name": "drainToken",
      "outputs": [],
      "stateMutability": "nonpayable",
      "type": "function"
    },
    {
      "inputs": [
        {
          "internalType": "address",
          "name": "account",
          "type": "address"
        }
      ],
      "name": "isPauser",
      "outputs": [
        {
          "internalType": "bool",
          "name": "",
          "type": "bool"
        }
      ],
      "stateMutability": "view",
      "type": "function"
    },
    {
      "inputs": [],
      "name": "owner",
      "outputs": [
        {
          "internalType": "address",
          "name": "",
          "type": "address"
        }
      ],
      "stateMutability": "view",
      "type": "function"
    },
    {
      "inputs": [],
      "name": "pause",
      "outputs": [],
      "stateMutability": "nonpayable",
      "type": "function"
    },
    {
      "inputs": [],
      "name": "paused",
      "outputs": [
        {
          "internalType": "bool",
          "name": "",
          "type": "bool"
        }
      ],
      "stateMutability": "view",
      "type": "function"
    },
    {
      "inputs": [
        {
          "internalType": "address",
          "name": "",
          "type": "address"
        }
      ],
      "name": "pausers",
      "outputs": [
        {
          "internalType": "bool",
          "name": "",
          "type": "bool"
        }
      ],
      "stateMutability": "view",
      "type": "function"
    },
    {
      "inputs": [
        {
          "internalType": "address",
          "name": "account",
          "type": "address"
        }
      ],
      "name": "removePauser",
      "outputs": [],
      "stateMutability": "nonpayable",
      "type": "function"
    },
    {
      "inputs": [],
      "name": "renouncePauser",
      "outputs": [],
      "stateMutability": "nonpayable",
      "type": "function"
    },
    {
      "inputs": [],
      "name": "staking",
      "outputs": [
        {
          "internalType": "contract Staking",
          "name": "",
          "type": "address"
        }
      ],
      "stateMutability": "view",
      "type": "function"
    },
    {
      "inputs": [
        {
          "internalType": "address",
          "name": "newOwner",
          "type": "address"
        }
      ],
      "name": "transferOwnership",
      "outputs": [],
      "stateMutability": "nonpayable",
      "type": "function"
    },
    {
      "inputs": [],
      "name": "unpause",
      "outputs": [],
      "stateMutability": "nonpayable",
      "type": "function"
    }
  ],
  "transactionHash": "0x6498deeb03b7ee1ae23dd38f8a09ce49afdf3efbf02ae6a3b9c6077720bcac33",
  "args": [
    "0x1705a771B1dBaeC22beF7efE8e196642619A3faf"
  ],
  "numDeployments": 1,
  "solcInputHash": "599f975210cdab3113358d43cb6a3e35",
  "bytecode": "0x60a06040523480156200001157600080fd5b50604051620019ce380380620019ce833981016040819052620000349162000182565b6200003f3362000069565b6000805460ff60a01b191690556200005733620000b9565b6001600160a01b0316608052620001b4565b600080546001600160a01b038381166001600160a01b0319831681178455604051919092169283917f8be0079c531659141344cd1fd0a4f28419497f9722a3daafe3b4186f6b6457e09190a35050565b6001600160a01b03811660009081526001602052604090205460ff1615620001275760405162461bcd60e51b815260206004820152601960248201527f4163636f756e7420697320616c72656164792070617573657200000000000000604482015260640160405180910390fd5b6001600160a01b038116600081815260016020818152604092839020805460ff191690921790915590519182527f6719d08c1888103bea251a4ed56406bd0c3e69723c8a1686e017e7bbe159b6f8910160405180910390a150565b6000602082840312156200019557600080fd5b81516001600160a01b0381168114620001ad57600080fd5b9392505050565b6080516117e2620001ec60003960008181610170015281816102d90152818161047a015281816108750152610a2201526117e26000f3fe608060405234801561001057600080fd5b50600436106100f55760003560e01c80636ef8d66d116100975780638da5cb5b116100665780638da5cb5b1461021557806396db0fef14610226578063f2fde38b14610254578063f8df0dc51461026757600080fd5b80636ef8d66d146101cf57806380f51c12146101d757806382dc1ec4146101fa5780638456cb591461020d57600080fd5b806346fbf68e116100d357806346fbf68e1461012a5780634cf088d91461016b5780635c975abb146101aa5780636b2c0f55146101bc57600080fd5b80630a300b09146100fa578063145aa1161461010f5780633f4ba83a14610122575b600080fd5b61010d610108366004611431565b61027a565b005b61010d61011d366004611431565b6103b1565b61010d61050d565b61015661013836600461145f565b6001600160a01b031660009081526001602052604090205460ff1690565b60405190151581526020015b60405180910390f35b6101927f000000000000000000000000000000000000000000000000000000000000000081565b6040516001600160a01b039091168152602001610162565b600054600160a01b900460ff16610156565b61010d6101ca36600461145f565b610576565b61010d6105e8565b6101566101e536600461145f565b60016020526000908152604090205460ff1681565b61010d61020836600461145f565b6105f1565b61010d610663565b6000546001600160a01b0316610192565b61024661023436600461145f565b60026020526000908152604090205481565b604051908152602001610162565b61010d61026236600461145f565b6106ca565b61010d61027536600461147c565b6107b8565b600054600160a01b900460ff16156102cc5760405162461bcd60e51b815260206004820152601060248201526f14185d5cd8589b194e881c185d5cd95960821b60448201526064015b60405180910390fd5b600033905061036a8130847f00000000000000000000000000000000000000000000000000000000000000006001600160a01b031663a9fbc76c6040518163ffffffff1660e01b8152600401602060405180830381865afa158015610335573d6000803e3d6000fd5b505050506040513d601f19601f820116820180604052508101906103599190611541565b6001600160a01b0316929190610acf565b806001600160a01b03167ff67017a05194c0853be9169be60cad9fa6e75d34b6b507a7a4261510e19c6d79836040516103a591815260200190565b60405180910390a25050565b600054600160a01b900460ff1661040a5760405162461bcd60e51b815260206004820152601460248201527f5061757361626c653a206e6f742070617573656400000000000000000000000060448201526064016102c3565b3361041d6000546001600160a01b031690565b6001600160a01b0316146104735760405162461bcd60e51b815260206004820181905260248201527f4f776e61626c653a2063616c6c6572206973206e6f7420746865206f776e657260448201526064016102c3565b61050a33827f00000000000000000000000000000000000000000000000000000000000000006001600160a01b031663a9fbc76c6040518163ffffffff1660e01b8152600401602060405180830381865afa1580156104d6573d6000803e3d6000fd5b505050506040513d601f19601f820116820180604052508101906104fa9190611541565b6001600160a01b03169190610b6d565b50565b3360009081526001602052604090205460ff1661056c5760405162461bcd60e51b815260206004820152601460248201527f43616c6c6572206973206e6f742070617573657200000000000000000000000060448201526064016102c3565b610574610ba2565b565b336105896000546001600160a01b031690565b6001600160a01b0316146105df5760405162461bcd60e51b815260206004820181905260248201527f4f776e61626c653a2063616c6c6572206973206e6f7420746865206f776e657260448201526064016102c3565b61050a81610c48565b61057433610c48565b336106046000546001600160a01b031690565b6001600160a01b03161461065a5760405162461bcd60e51b815260206004820181905260248201527f4f776e61626c653a2063616c6c6572206973206e6f7420746865206f776e657260448201526064016102c3565b61050a81610d08565b3360009081526001602052604090205460ff166106c25760405162461bcd60e51b815260206004820152601460248201527f43616c6c6572206973206e6f742070617573657200000000000000000000000060448201526064016102c3565b610574610dc6565b336106dd6000546001600160a01b031690565b6001600160a01b0316146107335760405162461bcd60e51b815260206004820181905260248201527f4f776e61626c653a2063616c6c6572206973206e6f7420746865206f776e657260448201526064016102c3565b6001600160a01b0381166107af5760405162461bcd60e51b815260206004820152602660248201527f4f776e61626c653a206e6577206f776e657220697320746865207a65726f206160448201527f646472657373000000000000000000000000000000000000000000000000000060648201526084016102c3565b61050a81610e4e565b600054600160a01b900460ff16156108055760405162461bcd60e51b815260206004820152601060248201526f14185d5cd8589b194e881c185d5cd95960821b60448201526064016102c3565b6000463060405160200161085b92919091825260601b6bffffffffffffffffffffffff191660208201527f5374616b696e6752657761726400000000000000000000000000000000000000603482015260410190565b6040516020818303038152906040528051906020012090507f00000000000000000000000000000000000000000000000000000000000000006001600160a01b0316638a74d5fe8287876040516020016108b79392919061155e565b60405160208183030381529060405285856040518463ffffffff1660e01b81526004016108e6939291906115f1565b602060405180830381865afa158015610903573d6000803e3d6000fd5b505050506040513d601f19601f8201168201806040525081019061092791906116a1565b50600061096986868080601f016020809104026020016040519081016040528093929190818152602001838380828437600092019190915250610eb692505050565b60208082015182516001600160a01b03166000908152600290925260408220549293509161099790836116d9565b9050600081116109e95760405162461bcd60e51b815260206004820152600d60248201527f4e6f206e6577207265776172640000000000000000000000000000000000000060448201526064016102c3565b816002600085600001516001600160a01b03166001600160a01b0316815260200190815260200160002081905550610a7e8360000151827f00000000000000000000000000000000000000000000000000000000000000006001600160a01b031663a9fbc76c6040518163ffffffff1660e01b8152600401602060405180830381865afa1580156104d6573d6000803e3d6000fd5b82600001516001600160a01b03167f6dd401e61ba732582a5eba3d54ccc3afb3609cd3ac1a166d1d36f75fc0aedcda82604051610abd91815260200190565b60405180910390a25050505050505050565b6040516001600160a01b0380851660248301528316604482015260648101829052610b679085906323b872dd60e01b906084015b60408051601f198184030181529190526020810180517bffffffffffffffffffffffffffffffffffffffffffffffffffffffff167fffffffff0000000000000000000000000000000000000000000000000000000090931692909217909152610f60565b50505050565b6040516001600160a01b038316602482015260448101829052610b9d90849063a9059cbb60e01b90606401610b03565b505050565b600054600160a01b900460ff16610bfb5760405162461bcd60e51b815260206004820152601460248201527f5061757361626c653a206e6f742070617573656400000000000000000000000060448201526064016102c3565b6000805460ff60a01b191690557f5db9ee0a495bf2e6ff9c91a7834c1ba4fdd244a5e8aa4e537bd38aeae4b073aa335b6040516001600160a01b03909116815260200160405180910390a1565b6001600160a01b03811660009081526001602052604090205460ff16610cb05760405162461bcd60e51b815260206004820152601560248201527f4163636f756e74206973206e6f7420706175736572000000000000000000000060448201526064016102c3565b6001600160a01b038116600081815260016020908152604091829020805460ff1916905590519182527fcd265ebaf09df2871cc7bd4133404a235ba12eff2041bb89d9c714a2621c7c7e91015b60405180910390a150565b6001600160a01b03811660009081526001602052604090205460ff1615610d715760405162461bcd60e51b815260206004820152601960248201527f4163636f756e7420697320616c7265616479207061757365720000000000000060448201526064016102c3565b6001600160a01b038116600081815260016020818152604092839020805460ff191690921790915590519182527f6719d08c1888103bea251a4ed56406bd0c3e69723c8a1686e017e7bbe159b6f89101610cfd565b600054600160a01b900460ff1615610e135760405162461bcd60e51b815260206004820152601060248201526f14185d5cd8589b194e881c185d5cd95960821b60448201526064016102c3565b6000805460ff60a01b1916600160a01b1790557f62e78cea01bee320cd4e420270b5ea74000d11b0c9f74754ebdbfc544b05a258610c2b3390565b600080546001600160a01b038381167fffffffffffffffffffffffff0000000000000000000000000000000000000000831681178455604051919092169283917f8be0079c531659141344cd1fd0a4f28419497f9722a3daafe3b4186f6b6457e09190a35050565b6040805180820182526000808252602080830182905283518085019094528184528301849052909190805b60208301515183511015610f5857610ef883611045565b909250905081600103610f2657610f16610f118461107f565b61113c565b6001600160a01b03168452610ee1565b81600203610f4957610f3f610f3a8461107f565b61114d565b6020850152610ee1565b610f538382611184565b610ee1565b505050919050565b6000610fb5826040518060400160405280602081526020017f5361666545524332303a206c6f772d6c6576656c2063616c6c206661696c6564815250856001600160a01b03166111f49092919063ffffffff16565b805190915015610b9d5780806020019051810190610fd391906116a1565b610b9d5760405162461bcd60e51b815260206004820152602a60248201527f5361666545524332303a204552433230206f7065726174696f6e20646964206e60448201527f6f7420737563636565640000000000000000000000000000000000000000000060648201526084016102c3565b60008060006110538461120d565b90506110606008826116ec565b92508060071660058111156110775761107761170e565b915050915091565b6060600061108c8361120d565b905060008184600001516110a09190611724565b90508360200151518111156110b457600080fd5b8167ffffffffffffffff8111156110cd576110cd611737565b6040519080825280601f01601f1916602001820160405280156110f7576020820181803683370190505b50602080860151865192955091818601919083010160005b8581101561113157818101518382015261112a602082611724565b905061110f565b505050935250919050565b600061114782611288565b92915050565b600060208251111561115e57600080fd5b602082015190508151602061117391906116d9565b61117e90600861174d565b1c919050565b60008160058111156111985761119861170e565b036111a657610b9d8261120d565b60028160058111156111ba576111ba61170e565b036100f55760006111ca8361120d565b905080836000018181516111de9190611724565b90525060208301515183511115610b9d57600080fd5b606061120384846000856112b0565b90505b9392505050565b602080820151825181019091015160009182805b600a8110156100f55783811a915061123a81600761174d565b82607f16901b85179450816080166000036112765761125a816001611724565b86518790611269908390611724565b9052509395945050505050565b8061128081611764565b915050611221565b6000815160141461129857600080fd5b50602001516c01000000000000000000000000900490565b6060824710156113285760405162461bcd60e51b815260206004820152602660248201527f416464726573733a20696e73756666696369656e742062616c616e636520666f60448201527f722063616c6c000000000000000000000000000000000000000000000000000060648201526084016102c3565b6001600160a01b0385163b61137f5760405162461bcd60e51b815260206004820152601d60248201527f416464726573733a2063616c6c20746f206e6f6e2d636f6e747261637400000060448201526064016102c3565b600080866001600160a01b0316858760405161139b919061177d565b60006040518083038185875af1925050503d80600081146113d8576040519150601f19603f3d011682016040523d82523d6000602084013e6113dd565b606091505b50915091506113ed8282866113f8565b979650505050505050565b60608315611407575081611206565b8251156114175782518084602001fd5b8160405162461bcd60e51b81526004016102c39190611799565b60006020828403121561144357600080fd5b5035919050565b6001600160a01b038116811461050a57600080fd5b60006020828403121561147157600080fd5b81356112068161144a565b6000806000806040858703121561149257600080fd5b843567ffffffffffffffff808211156114aa57600080fd5b818701915087601f8301126114be57600080fd5b8135818111156114cd57600080fd5b8860208285010111156114df57600080fd5b6020928301965094509086013590808211156114fa57600080fd5b818701915087601f83011261150e57600080fd5b81358181111561151d57600080fd5b8860208260051b850101111561153257600080fd5b95989497505060200194505050565b60006020828403121561155357600080fd5b81516112068161144a565b838152818360208301376000910160200190815292915050565b60005b8381101561159357818101518382015260200161157b565b50506000910152565b600081518084526115b4816020860160208601611578565b601f01601f19169290920160200192915050565b81835281816020850137506000828201602090810191909152601f909101601f19169091010190565b604081526000611604604083018661159c565b602083820381850152818583528183019050818660051b8401018760005b8881101561169257858303601f190184528135368b9003601e1901811261164857600080fd5b8a01858101903567ffffffffffffffff81111561166457600080fd5b80360382131561167357600080fd5b61167e8582846115c8565b958701959450505090840190600101611622565b50909998505050505050505050565b6000602082840312156116b357600080fd5b8151801515811461120657600080fd5b634e487b7160e01b600052601160045260246000fd5b81810381811115611147576111476116c3565b60008261170957634e487b7160e01b600052601260045260246000fd5b500490565b634e487b7160e01b600052602160045260246000fd5b80820180821115611147576111476116c3565b634e487b7160e01b600052604160045260246000fd5b8082028115828204841417611147576111476116c3565b600060018201611776576117766116c3565b5060010190565b6000825161178f818460208701611578565b9190910192915050565b602081526000611206602083018461159c56fea26469706673582212205bcf55f93a73a15767406c5b1b0be0d5dadf49a5b29dac7ff74248856c95e49664736f6c63430008110033",
  "devdoc": {
    "kind": "dev",
    "methods": {
      "claimReward(bytes,bytes[])": {
        "details": "Here we use cumulative reward to make claim process idempotent",
        "params": {
          "_rewardRequest": "reward request bytes coded in protobuf",
          "_sigs": "list of validator signatures"
        }
      },
      "contributeToRewardPool(uint256)": {
        "params": {
          "_amount": "the amount of XQST token to contribute"
        }
      },
      "drainToken(uint256)": {
        "details": "emergency use only",
        "params": {
          "_amount": "drained XQST token amount"
        }
      },
      "owner()": {
        "details": "Returns the address of the current owner."
      },
      "paused()": {
        "details": "Returns true if the contract is paused, and false otherwise."
      },
      "transferOwnership(address)": {
        "details": "Transfers ownership of the contract to a new account (`newOwner`). Can only be called by the current owner."
      }
    },
    "title": "A contract to hold and distribute XQST staking rewards.",
    "version": 1
  },
  "userdoc": {
    "kind": "user",
    "methods": {
      "claimReward(bytes,bytes[])": {
        "notice": "Claim reward"
      },
      "contributeToRewardPool(uint256)": {
        "notice": "Contribute XQST tokens to the reward pool"
      },
      "drainToken(uint256)": {
        "notice": "Owner drains XQST tokens when the contract is paused"
      }
    },
    "version": 1
  },
  "storageLayout": {
    "storage": [
      {
        "astId": 35256,
        "contract": "contracts/staking/StakingReward.sol:StakingReward",
        "label": "_owner",
        "offset": 0,
        "slot": "0",
        "type": "t_address"
      },
      {
        "astId": 1261,
        "contract": "contracts/staking/StakingReward.sol:StakingReward",
        "label": "_paused",
        "offset": 20,
        "slot": "0",
        "type": "t_bool"
      },
      {
        "astId": 35370,
        "contract": "contracts/staking/StakingReward.sol:StakingReward",
        "label": "pausers",
        "offset": 0,
        "slot": "1",
        "type": "t_mapping(t_address,t_bool)"
      },
      {
        "astId": 41523,
        "contract": "contracts/staking/StakingReward.sol:StakingReward",
        "label": "claimedRewardAmounts",
        "offset": 0,
        "slot": "2",
        "type": "t_mapping(t_address,t_uint256)"
      }
    ],
    "types": {
      "t_address": {
        "encoding": "inplace",
        "label": "address",
        "numberOfBytes": "20"
      },
      "t_bool": {
        "encoding": "inplace",
        "label": "bool",
        "numberOfBytes": "1"
      },
      "t_mapping(t_address,t_bool)": {
        "encoding": "mapping",
        "key": "t_address",
        "label": "mapping(address => bool)",
        "numberOfBytes": "32",
        "value": "t_bool"
      },
      "t_mapping(t_address,t_uint256)": {
        "encoding": "mapping",
        "key": "t_address",
        "label": "mapping(address => uint256)",
        "numberOfBytes": "32",
        "value": "t_uint256"
      },
      "t_uint256": {
        "encoding": "inplace",
        "label": "uint256",
        "numberOfBytes": "32"
      }
    }
  }
}